:020000020000FC
:0200000033C00B
:040028000C946200D2
:040034000C945B00CD
:1000680008E00EBF0FEF0DBF02D07894FFCF0CE170
:1000780004B9002705B909EF009385000FEB009339
:1000880084000FEF009389000FEF0093880009EFB9
:1000980000938B0002EC00938A0003E20093800037
:1000A8000BE10093810001E200936F00089509EFCE
:1000B800009385000FEB009384001895F894109135
:1000C8008600209187001D5B294F2C982B98223C95
:1000D80029F4123918F431E02C9A02C033272B9AEC
:0400E800789418955B
:00000001FF
